{
  "contractName": "FileStorage",
  "abi": [
    {
      "constant": true,
      "inputs": [
        {
          "internalType": "uint256",
          "name": "",
          "type": "uint256"
        }
      ],
      "name": "files",
      "outputs": [
        {
          "internalType": "string",
          "name": "name",
          "type": "string"
        },
        {
          "internalType": "string",
          "name": "cid",
          "type": "string"
        },
        {
          "internalType": "uint256",
          "name": "size",
          "type": "uint256"
        },
        {
          "internalType": "uint256",
          "name": "time",
          "type": "uint256"
        },
        {
          "internalType": "string",
          "name": "type_",
          "type": "string"
        },
        {
          "internalType": "uint256",
          "name": "modify",
          "type": "uint256"
        },
        {
          "internalType": "string",
          "name": "uuid",
          "type": "string"
        }
      ],
      "payable": false,
      "stateMutability": "view",
      "type": "function"
    },
    {
      "constant": false,
      "inputs": [
        {
          "internalType": "string",
          "name": "name",
          "type": "string"
        },
        {
          "internalType": "string",
          "name": "cid",
          "type": "string"
        },
        {
          "internalType": "uint256",
          "name": "size",
          "type": "uint256"
        },
        {
          "internalType": "uint256",
          "name": "time",
          "type": "uint256"
        },
        {
          "internalType": "string",
          "name": "type_",
          "type": "string"
        },
        {
          "internalType": "string",
          "name": "uuid",
          "type": "string"
        }
      ],
      "name": "push",
      "outputs": [
        {
          "components": [
            {
              "internalType": "string",
              "name": "name",
              "type": "string"
            },
            {
              "internalType": "string",
              "name": "cid",
              "type": "string"
            },
            {
              "internalType": "uint256",
              "name": "size",
              "type": "uint256"
            },
            {
              "internalType": "uint256",
              "name": "time",
              "type": "uint256"
            },
            {
              "internalType": "string",
              "name": "type_",
              "type": "string"
            },
            {
              "internalType": "uint256",
              "name": "modify",
              "type": "uint256"
            },
            {
              "internalType": "string",
              "name": "uuid",
              "type": "string"
            }
          ],
          "internalType": "struct FileStorage.File",
          "name": "",
          "type": "tuple"
        }
      ],
      "payable": false,
      "stateMutability": "nonpayable",
      "type": "function"
    },
    {
      "constant": false,
      "inputs": [
        {
          "internalType": "string",
          "name": "cid",
          "type": "string"
        },
        {
          "internalType": "string",
          "name": "newName",
          "type": "string"
        },
        {
          "internalType": "uint256",
          "name": "modify",
          "type": "uint256"
        }
      ],
      "name": "renameFile",
      "outputs": [
        {
          "components": [
            {
              "internalType": "string",
              "name": "name",
              "type": "string"
            },
            {
              "internalType": "string",
              "name": "cid",
              "type": "string"
            },
            {
              "internalType": "uint256",
              "name": "size",
              "type": "uint256"
            },
            {
              "internalType": "uint256",
              "name": "time",
              "type": "uint256"
            },
            {
              "internalType": "string",
              "name": "type_",
              "type": "string"
            },
            {
              "internalType": "uint256",
              "name": "modify",
              "type": "uint256"
            },
            {
              "internalType": "string",
              "name": "uuid",
              "type": "string"
            }
          ],
          "internalType": "struct FileStorage.File",
          "name": "",
          "type": "tuple"
        }
      ],
      "payable": false,
      "stateMutability": "nonpayable",
      "type": "function"
    },
    {
      "constant": true,
      "inputs": [
        {
          "internalType": "string",
          "name": "cid",
          "type": "string"
        }
      ],
      "name": "isCIDExisted",
      "outputs": [
        {
          "internalType": "bool",
          "name": "",
          "type": "bool"
        }
      ],
      "payable": false,
      "stateMutability": "view",
      "type": "function"
    },
    {
      "constant": false,
      "inputs": [
        {
          "components": [
            {
              "internalType": "string",
              "name": "name",
              "type": "string"
            },
            {
              "internalType": "string",
              "name": "cid",
              "type": "string"
            },
            {
              "internalType": "uint256",
              "name": "size",
              "type": "uint256"
            },
            {
              "internalType": "uint256",
              "name": "time",
              "type": "uint256"
            },
            {
              "internalType": "string",
              "name": "type_",
              "type": "string"
            },
            {
              "internalType": "uint256",
              "name": "modify",
              "type": "uint256"
            },
            {
              "internalType": "string",
              "name": "uuid",
              "type": "string"
            }
          ],
          "internalType": "struct FileStorage.File",
          "name": "file",
          "type": "tuple"
        }
      ],
      "name": "addDataToMapping",
      "outputs": [],
      "payable": false,
      "stateMutability": "nonpayable",
      "type": "function"
    },
    {
      "constant": true,
      "inputs": [],
      "name": "getFiles",
      "outputs": [
        {
          "components": [
            {
              "internalType": "string",
              "name": "name",
              "type": "string"
            },
            {
              "internalType": "string",
              "name": "cid",
              "type": "string"
            },
            {
              "internalType": "uint256",
              "name": "size",
              "type": "uint256"
            },
            {
              "internalType": "uint256",
              "name": "time",
              "type": "uint256"
            },
            {
              "internalType": "string",
              "name": "type_",
              "type": "string"
            },
            {
              "internalType": "uint256",
              "name": "modify",
              "type": "uint256"
            },
            {
              "internalType": "string",
              "name": "uuid",
              "type": "string"
            }
          ],
          "internalType": "struct FileStorage.File[]",
          "name": "",
          "type": "tuple[]"
        }
      ],
      "payable": false,
      "stateMutability": "view",
      "type": "function"
    },
    {
      "constant": true,
      "inputs": [
        {
          "internalType": "string",
          "name": "cid",
          "type": "string"
        }
      ],
      "name": "getByCid",
      "outputs": [
        {
          "components": [
            {
              "internalType": "string",
              "name": "name",
              "type": "string"
            },
            {
              "internalType": "string",
              "name": "cid",
              "type": "string"
            },
            {
              "internalType": "uint256",
              "name": "size",
              "type": "uint256"
            },
            {
              "internalType": "uint256",
              "name": "time",
              "type": "uint256"
            },
            {
              "internalType": "string",
              "name": "type_",
              "type": "string"
            },
            {
              "internalType": "uint256",
              "name": "modify",
              "type": "uint256"
            },
            {
              "internalType": "string",
              "name": "uuid",
              "type": "string"
            }
          ],
          "internalType": "struct FileStorage.File",
          "name": "",
          "type": "tuple"
        }
      ],
      "payable": false,
      "stateMutability": "view",
      "type": "function"
    }
  ],
  "bytecode": "0x608060405234801561001057600080fd5b50611d21806100206000396000f3fe608060405234801561001057600080fd5b506004361061007d5760003560e01c80637bc5825f1161005b5780637bc5825f146100ec578063cfe7a3971461011c578063f4c714b41461014c578063f97f6350146101825761007d565b80631951bd97146100825780632da96d73146100b25780636d2124d2146100d0575b600080fd5b61009c60048036036100979190810190611606565b6101b2565b6040516100a99190611b3b565b60405180910390f35b6100ba610409565b6040516100c79190611a73565b60405180910390f35b6100ea60048036036100e591908101906116ef565b61070e565b005b61010660048036036101019190810190611587565b6107c9565b6040516101139190611b3b565b60405180910390f35b61013660048036036101319190810190611546565b610bce565b6040516101439190611a95565b60405180910390f35b61016660048036036101619190810190611730565b610c03565b6040516101799796959493929190611ab0565b60405180910390f35b61019c60048036036101979190810190611546565b610eb2565b6040516101a99190611b3b565b60405180910390f35b6101ba611190565b6101c2611190565b6040518060e001604052808981526020018881526020018781526020018681526020018581526020018681526020018481525090506000819080600181540180825580915050906001820390600052602060002090600702016000909192909190915060008201518160000190805190602001906102419291906111cd565b50602082015181600101908051906020019061025e9291906111cd565b506040820151816002015560608201518160030155608082015181600401908051906020019061028f9291906111cd565b5060a0820151816005015560c08201518160060190805190602001906102b69291906111cd565b50505050806001886040516102cb9190611a5c565b908152602001604051809103902060008201518160000190805190602001906102f59291906111cd565b5060208201518160010190805190602001906103129291906111cd565b50604082015181600201556060820151816003015560808201518160040190805190602001906103439291906111cd565b5060a0820151816005015560c082015181600601908051906020019061036a9291906111cd565b5090505060016002886040516103809190611a5c565b908152602001604051809103902060006101000a81548160ff0219169083151502179055506001600080549050036003886040516103be9190611a5c565b9081526020016040518091039020819055506001600080549050036004846040516103e99190611a5c565b908152602001604051809103902081905550809150509695505050505050565b60606000805480602002602001604051908101604052809291908181526020016000905b8282101561070557838290600052602060002090600702016040518060e0016040529081600082018054600181600116156101000203166002900480601f0160208091040260200160405190810160405280929190818152602001828054600181600116156101000203166002900480156104e95780601f106104be576101008083540402835291602001916104e9565b820191906000526020600020905b8154815290600101906020018083116104cc57829003601f168201915b50505050508152602001600182018054600181600116156101000203166002900480601f01602080910402602001604051908101604052809291908181526020018280546001816001161561010002031660029004801561058b5780601f106105605761010080835404028352916020019161058b565b820191906000526020600020905b81548152906001019060200180831161056e57829003601f168201915b505050505081526020016002820154815260200160038201548152602001600482018054600181600116156101000203166002900480601f0160208091040260200160405190810160405280929190818152602001828054600181600116156101000203166002900480156106415780601f1061061657610100808354040283529160200191610641565b820191906000526020600020905b81548152906001019060200180831161062457829003601f168201915b5050505050815260200160058201548152602001600682018054600181600116156101000203166002900480601f0160208091040260200160405190810160405280929190818152602001828054600181600116156101000203166002900480156106ed5780601f106106c2576101008083540402835291602001916106ed565b820191906000526020600020905b8154815290600101906020018083116106d057829003601f168201915b5050505050815250508152602001906001019061042d565b50505050905090565b80600182602001516040516107239190611a45565b9081526020016040518091039020600082015181600001908051906020019061074d9291906111cd565b50602082015181600101908051906020019061076a9291906111cd565b506040820151816002015560608201518160030155608082015181600401908051906020019061079b9291906111cd565b5060a0820151816005015560c08201518160060190805190602001906107c29291906111cd565b5090505050565b6107d1611190565b60006004856040516107e39190611a5c565b9081526020016040518091039020549050600080828154811061080257fe5b906000526020600020906007020190508481600001908051906020019061082a92919061124d565b50838160050181905550806000838154811061084257fe5b9060005260206000209060070201600082018160000190805460018160011615610100020316600290046108779291906112cd565b506001820181600101908054600181600116156101000203166002900461089f9291906112cd565b506002820154816002015560038201548160030155600482018160040190805460018160011615610100020316600290046108db9291906112cd565b50600582015481600501556006820181600601908054600181600116156101000203166002900461090d9291906112cd565b50905050806040518060e0016040529081600082018054600181600116156101000203166002900480601f0160208091040260200160405190810160405280929190818152602001828054600181600116156101000203166002900480156109b65780601f1061098b576101008083540402835291602001916109b6565b820191906000526020600020905b81548152906001019060200180831161099957829003601f168201915b50505050508152602001600182018054600181600116156101000203166002900480601f016020809104026020016040519081016040528092919081815260200182805460018160011615610100020316600290048015610a585780601f10610a2d57610100808354040283529160200191610a58565b820191906000526020600020905b815481529060010190602001808311610a3b57829003601f168201915b505050505081526020016002820154815260200160038201548152602001600482018054600181600116156101000203166002900480601f016020809104026020016040519081016040528092919081815260200182805460018160011615610100020316600290048015610b0e5780601f10610ae357610100808354040283529160200191610b0e565b820191906000526020600020905b815481529060010190602001808311610af157829003601f168201915b5050505050815260200160058201548152602001600682018054600181600116156101000203166002900480601f016020809104026020016040519081016040528092919081815260200182805460018160011615610100020316600290048015610bba5780601f10610b8f57610100808354040283529160200191610bba565b820191906000526020600020905b815481529060010190602001808311610b9d57829003601f168201915b505050505081525050925050509392505050565b6000600282604051610be09190611a5c565b908152602001604051809103902060009054906101000a900460ff169050919050565b60008181548110610c1057fe5b9060005260206000209060070201600091509050806000018054600181600116156101000203166002900480601f016020809104026020016040519081016040528092919081815260200182805460018160011615610100020316600290048015610cbc5780601f10610c9157610100808354040283529160200191610cbc565b820191906000526020600020905b815481529060010190602001808311610c9f57829003601f168201915b505050505090806001018054600181600116156101000203166002900480601f016020809104026020016040519081016040528092919081815260200182805460018160011615610100020316600290048015610d5a5780601f10610d2f57610100808354040283529160200191610d5a565b820191906000526020600020905b815481529060010190602001808311610d3d57829003601f168201915b505050505090806002015490806003015490806004018054600181600116156101000203166002900480601f016020809104026020016040519081016040528092919081815260200182805460018160011615610100020316600290048015610e045780601f10610dd957610100808354040283529160200191610e04565b820191906000526020600020905b815481529060010190602001808311610de757829003601f168201915b505050505090806005015490806006018054600181600116156101000203166002900480601f016020809104026020016040519081016040528092919081815260200182805460018160011615610100020316600290048015610ea85780601f10610e7d57610100808354040283529160200191610ea8565b820191906000526020600020905b815481529060010190602001808311610e8b57829003601f168201915b5050505050905087565b610eba611190565b600182604051610eca9190611a5c565b90815260200160405180910390206040518060e0016040529081600082018054600181600116156101000203166002900480601f016020809104026020016040519081016040528092919081815260200182805460018160011615610100020316600290048015610f7c5780601f10610f5157610100808354040283529160200191610f7c565b820191906000526020600020905b815481529060010190602001808311610f5f57829003601f168201915b50505050508152602001600182018054600181600116156101000203166002900480601f01602080910402602001604051908101604052809291908181526020018280546001816001161561010002031660029004801561101e5780601f10610ff35761010080835404028352916020019161101e565b820191906000526020600020905b81548152906001019060200180831161100157829003601f168201915b505050505081526020016002820154815260200160038201548152602001600482018054600181600116156101000203166002900480601f0160208091040260200160405190810160405280929190818152602001828054600181600116156101000203166002900480156110d45780601f106110a9576101008083540402835291602001916110d4565b820191906000526020600020905b8154815290600101906020018083116110b757829003601f168201915b5050505050815260200160058201548152602001600682018054600181600116156101000203166002900480601f0160208091040260200160405190810160405280929190818152602001828054600181600116156101000203166002900480156111805780601f1061115557610100808354040283529160200191611180565b820191906000526020600020905b81548152906001019060200180831161116357829003601f168201915b5050505050815250509050919050565b6040518060e00160405280606081526020016060815260200160008152602001600081526020016060815260200160008152602001606081525090565b828054600181600116156101000203166002900490600052602060002090601f016020900481019282601f1061120e57805160ff191683800117855561123c565b8280016001018555821561123c579182015b8281111561123b578251825591602001919060010190611220565b5b5090506112499190611354565b5090565b828054600181600116156101000203166002900490600052602060002090601f016020900481019282601f1061128e57805160ff19168380011785556112bc565b828001600101855582156112bc579182015b828111156112bb5782518255916020019190600101906112a0565b5b5090506112c99190611354565b5090565b828054600181600116156101000203166002900490600052602060002090601f016020900481019282601f106113065780548555611343565b8280016001018555821561134357600052602060002091601f016020900482015b82811115611342578254825591600101919060010190611327565b5b5090506113509190611354565b5090565b61137691905b8082111561137257600081600090555060010161135a565b5090565b90565b600082601f83011261138a57600080fd5b813561139d61139882611b8a565b611b5d565b915080825260208301602083018583830111156113b957600080fd5b6113c4838284611c74565b50505092915050565b600082601f8301126113de57600080fd5b81356113f16113ec82611bb6565b611b5d565b9150808252602083016020830185838301111561140d57600080fd5b611418838284611c74565b50505092915050565b600060e0828403121561143357600080fd5b61143d60e0611b5d565b9050600082013567ffffffffffffffff81111561145957600080fd5b61146584828501611379565b600083015250602082013567ffffffffffffffff81111561148557600080fd5b61149184828501611379565b60208301525060406114a584828501611531565b60408301525060606114b984828501611531565b606083015250608082013567ffffffffffffffff8111156114d957600080fd5b6114e584828501611379565b60808301525060a06114f984828501611531565b60a08301525060c082013567ffffffffffffffff81111561151957600080fd5b61152584828501611379565b60c08301525092915050565b60008135905061154081611cc7565b92915050565b60006020828403121561155857600080fd5b600082013567ffffffffffffffff81111561157257600080fd5b61157e848285016113cd565b91505092915050565b60008060006060848603121561159c57600080fd5b600084013567ffffffffffffffff8111156115b657600080fd5b6115c2868287016113cd565b935050602084013567ffffffffffffffff8111156115df57600080fd5b6115eb868287016113cd565b92505060406115fc86828701611531565b9150509250925092565b60008060008060008060c0878903121561161f57600080fd5b600087013567ffffffffffffffff81111561163957600080fd5b61164589828a016113cd565b965050602087013567ffffffffffffffff81111561166257600080fd5b61166e89828a016113cd565b955050604061167f89828a01611531565b945050606061169089828a01611531565b935050608087013567ffffffffffffffff8111156116ad57600080fd5b6116b989828a016113cd565b92505060a087013567ffffffffffffffff8111156116d657600080fd5b6116e289828a016113cd565b9150509295509295509295565b60006020828403121561170157600080fd5b600082013567ffffffffffffffff81111561171b57600080fd5b61172784828501611421565b91505092915050565b60006020828403121561174257600080fd5b600061175084828501611531565b91505092915050565b60006117658383611976565b905092915050565b600061177882611bf2565b6117828185611c20565b93508360208202850161179485611be2565b8060005b858110156117d057848403895281516117b18582611759565b94506117bc83611c13565b925060208a01995050600181019050611798565b50829750879550505050505092915050565b6117eb81611c5e565b82525050565b60006117fc82611c08565b6118068185611c53565b9350611816818560208601611c83565b80840191505092915050565b600061182d82611bfd565b6118378185611c31565b9350611847818560208601611c83565b61185081611cb6565b840191505092915050565b600061186682611bfd565b6118708185611c42565b9350611880818560208601611c83565b61188981611cb6565b840191505092915050565b600061189f82611bfd565b6118a98185611c53565b93506118b9818560208601611c83565b80840191505092915050565b600060e08301600083015184820360008601526118e28282611822565b915050602083015184820360208601526118fc8282611822565b91505060408301516119116040860182611a27565b5060608301516119246060860182611a27565b506080830151848203608086015261193c8282611822565b91505060a083015161195160a0860182611a27565b5060c083015184820360c08601526119698282611822565b9150508091505092915050565b600060e08301600083015184820360008601526119938282611822565b915050602083015184820360208601526119ad8282611822565b91505060408301516119c26040860182611a27565b5060608301516119d56060860182611a27565b50608083015184820360808601526119ed8282611822565b91505060a0830151611a0260a0860182611a27565b5060c083015184820360c0860152611a1a8282611822565b9150508091505092915050565b611a3081611c6a565b82525050565b611a3f81611c6a565b82525050565b6000611a518284611894565b915081905092915050565b6000611a6882846117f1565b915081905092915050565b60006020820190508181036000830152611a8d818461176d565b905092915050565b6000602082019050611aaa60008301846117e2565b92915050565b600060e0820190508181036000830152611aca818a61185b565b90508181036020830152611ade818961185b565b9050611aed6040830188611a36565b611afa6060830187611a36565b8181036080830152611b0c818661185b565b9050611b1b60a0830185611a36565b81810360c0830152611b2d818461185b565b905098975050505050505050565b60006020820190508181036000830152611b5581846118c5565b905092915050565b6000604051905081810181811067ffffffffffffffff82111715611b8057600080fd5b8060405250919050565b600067ffffffffffffffff821115611ba157600080fd5b601f19601f8301169050602081019050919050565b600067ffffffffffffffff821115611bcd57600080fd5b601f19601f8301169050602081019050919050565b6000819050602082019050919050565b600081519050919050565b600081519050919050565b600081519050919050565b6000602082019050919050565b600082825260208201905092915050565b600082825260208201905092915050565b600082825260208201905092915050565b600081905092915050565b60008115159050919050565b6000819050919050565b82818337600083830152505050565b60005b83811015611ca1578082015181840152602081019050611c86565b83811115611cb0576000848401525b50505050565b6000601f19601f8301169050919050565b611cd081611c6a565b8114611cdb57600080fd5b5056fea365627a7a72315820ed9540e44bbb078cd2e429fae6a6e763755124ec43139338177cf338bb0414fe6c6578706572696d656e74616cf564736f6c63430005100040",
  "source": "pragma solidity >=0.4.21 <=0.8.19;\r\npragma experimental ABIEncoderV2;\r\n\r\ncontract FileStorage {\r\n    struct File {\r\n        string name;\r\n        string cid;\r\n        uint256 size;\r\n        uint256 time;\r\n        string type_;\r\n        uint256 modify;\r\n        string uuid;\r\n    }\r\n\r\n    File[] public files;\r\n    mapping(string => File) cid2File;\r\n    mapping(string => bool) isCIDExists;\r\n    mapping(string => uint256) cid2Index;\r\n    mapping(string => uint256) uuid2Index;\r\n\r\n    function push(\r\n        string memory name,\r\n        string memory cid,\r\n        uint256 size,\r\n        uint256 time,\r\n        string memory type_,\r\n        string memory uuid\r\n    ) public returns (File memory) {\r\n        File memory newFile = File(name, cid, size, time, type_, time, uuid);\r\n        files.push(newFile);\r\n        cid2File[cid] = newFile;\r\n        isCIDExists[cid] = true;\r\n        cid2Index[cid] = files.length - 1;\r\n        uuid2Index[uuid] = files.length - 1;\r\n        return newFile;\r\n    }\r\n\r\n    function renameFile(\r\n        string memory cid,\r\n        string memory newName,\r\n        uint256 modify\r\n    ) public returns (File memory) {\r\n        uint256 index = uuid2Index[cid];\r\n        File storage file = files[index];\r\n        file.name = newName;\r\n        file.modify = modify;\r\n        files[index] = file;\r\n        return file;\r\n    }\r\n\r\n    function isCIDExisted(string memory cid) public view returns (bool) {\r\n        return isCIDExists[cid];\r\n    }\r\n\r\n    function addDataToMapping(File memory file) public {\r\n        cid2File[file.cid] = file;\r\n    }\r\n\r\n    function getFiles() public view returns (File[] memory) {\r\n        return files;\r\n    }\r\n\r\n    // Read Func\r\n    function getByCid(string memory cid) public view returns (File memory) {\r\n        return cid2File[cid];\r\n    }\r\n}\r\n",
  "sourcePath": "E:\\Year3-2\\Blockchain\\1BTL\\BTL-Storage-DApp\\src\\contracts\\FileStorage.sol",
  "compiler": {
    "name": "solc",
    "version": "0.5.16+commit.9c3226ce.Emscripten.clang"
  },
  "schemaVersion": "3.4.13",
  "updatedAt": "2023-04-24T06:12:18.395Z",
  "networkType": "ethereum",
  "devdoc": {
    "methods": {}
  },
  "userdoc": {
    "methods": {}
  }
}