{
  "contractName": "FileStorage",
  "abi": [
    {
      "constant": true,
      "inputs": [
        {
          "name": "",
          "type": "uint256"
        }
      ],
      "name": "files",
      "outputs": [
        {
          "name": "name",
          "type": "string"
        },
        {
          "name": "cid",
          "type": "string"
        },
        {
          "name": "size",
          "type": "uint256"
        },
        {
          "name": "time",
          "type": "uint256"
        },
        {
          "name": "type_",
          "type": "string"
        }
      ],
      "payable": false,
      "stateMutability": "view",
      "type": "function",
      "signature": "0xf4c714b4"
    },
    {
      "constant": false,
      "inputs": [
        {
          "name": "name",
          "type": "string"
        },
        {
          "name": "cid",
          "type": "string"
        },
        {
          "name": "size",
          "type": "uint256"
        },
        {
          "name": "time",
          "type": "uint256"
        },
        {
          "name": "type_",
          "type": "string"
        }
      ],
      "name": "push",
      "outputs": [
        {
          "components": [
            {
              "name": "name",
              "type": "string"
            },
            {
              "name": "cid",
              "type": "string"
            },
            {
              "name": "size",
              "type": "uint256"
            },
            {
              "name": "time",
              "type": "uint256"
            },
            {
              "name": "type_",
              "type": "string"
            }
          ],
          "name": "",
          "type": "tuple"
        }
      ],
      "payable": false,
      "stateMutability": "nonpayable",
      "type": "function",
      "signature": "0x497eecab"
    },
    {
      "constant": true,
      "inputs": [
        {
          "name": "cid",
          "type": "string"
        }
      ],
      "name": "isCIDExisted",
      "outputs": [
        {
          "name": "",
          "type": "bool"
        }
      ],
      "payable": false,
      "stateMutability": "view",
      "type": "function",
      "signature": "0xcfe7a397"
    },
    {
      "constant": false,
      "inputs": [
        {
          "components": [
            {
              "name": "name",
              "type": "string"
            },
            {
              "name": "cid",
              "type": "string"
            },
            {
              "name": "size",
              "type": "uint256"
            },
            {
              "name": "time",
              "type": "uint256"
            },
            {
              "name": "type_",
              "type": "string"
            }
          ],
          "name": "file",
          "type": "tuple"
        }
      ],
      "name": "addDataToMapping",
      "outputs": [],
      "payable": false,
      "stateMutability": "nonpayable",
      "type": "function",
      "signature": "0xdb5ffa71"
    },
    {
      "constant": true,
      "inputs": [],
      "name": "getFiles",
      "outputs": [
        {
          "components": [
            {
              "name": "name",
              "type": "string"
            },
            {
              "name": "cid",
              "type": "string"
            },
            {
              "name": "size",
              "type": "uint256"
            },
            {
              "name": "time",
              "type": "uint256"
            },
            {
              "name": "type_",
              "type": "string"
            }
          ],
          "name": "",
          "type": "tuple[]"
        }
      ],
      "payable": false,
      "stateMutability": "view",
      "type": "function",
      "signature": "0x2da96d73"
    },
    {
      "constant": true,
      "inputs": [
        {
          "name": "cid",
          "type": "string"
        }
      ],
      "name": "getByCid",
      "outputs": [
        {
          "components": [
            {
              "name": "name",
              "type": "string"
            },
            {
              "name": "cid",
              "type": "string"
            },
            {
              "name": "size",
              "type": "uint256"
            },
            {
              "name": "time",
              "type": "uint256"
            },
            {
              "name": "type_",
              "type": "string"
            }
          ],
          "name": "",
          "type": "tuple"
        }
      ],
      "payable": false,
      "stateMutability": "view",
      "type": "function",
      "signature": "0xf97f6350"
    }
  ],
  "bytecode": "0x608060405234801561001057600080fd5b506113c8806100206000396000f3fe608060405260043610610078576000357c0100000000000000000000000000000000000000000000000000000000900463ffffffff1680632da96d731461007d578063497eecab146100a8578063cfe7a397146100e5578063db5ffa7114610122578063f4c714b41461014b578063f97f63501461018c575b600080fd5b34801561008957600080fd5b506100926101c9565b60405161009f919061119f565b60405180910390f35b3480156100b457600080fd5b506100cf60048036036100ca9190810190610eac565b610423565b6040516100dc9190611244565b60405180910390f35b3480156100f157600080fd5b5061010c60048036036101079190810190610e6b565b610616565b60405161011991906111c1565b60405180910390f35b34801561012e57600080fd5b5061014960048036036101449190810190610f6b565b610698565b005b34801561015757600080fd5b50610172600480360361016d9190810190610fac565b610779565b6040516101839594939291906111dc565b60405180910390f35b34801561019857600080fd5b506101b360048036036101ae9190810190610e6b565b610986565b6040516101c09190611244565b60405180910390f35b60606000805480602002602001604051908101604052809291908181526020016000905b8282101561041a578382906000526020600020906005020160a06040519081016040529081600082018054600181600116156101000203166002900480601f0160208091040260200160405190810160405280929190818152602001828054600181600116156101000203166002900480156102aa5780601f1061027f576101008083540402835291602001916102aa565b820191906000526020600020905b81548152906001019060200180831161028d57829003601f168201915b50505050508152602001600182018054600181600116156101000203166002900480601f01602080910402602001604051908101604052809291908181526020018280546001816001161561010002031660029004801561034c5780601f106103215761010080835404028352916020019161034c565b820191906000526020600020905b81548152906001019060200180831161032f57829003601f168201915b505050505081526020016002820154815260200160038201548152602001600482018054600181600116156101000203166002900480601f0160208091040260200160405190810160405280929190818152602001828054600181600116156101000203166002900480156104025780601f106103d757610100808354040283529160200191610402565b820191906000526020600020905b8154815290600101906020018083116103e557829003601f168201915b505050505081525050815260200190600101906101ed565b50505050905090565b61042b610c06565b6002856040518082805190602001908083835b602083101515610463578051825260208201915060208101905060208303925061043e565b6001836020036101000a038019825116818451168082178552505050505050905001915050908152602001604051809103902060009054906101000a900460ff16156104ae57600080fd5b6104b6610c06565b60a06040519081016040528088815260200187815260200186815260200185815260200184815250905060008190806001815401808255809150509060018203906000526020600020906005020160009091929091909150600082015181600001908051906020019061052a929190610c36565b506020820151816001019080519060200190610547929190610c36565b5060408201518160020155606082015181600301556080820151816004019080519060200190610578929190610c36565b5050505061058581610698565b60016002876040518082805190602001908083835b6020831015156105bf578051825260208201915060208101905060208303925061059a565b6001836020036101000a038019825116818451168082178552505050505050905001915050908152602001604051809103902060006101000a81548160ff0219169083151502179055508091505095945050505050565b60006002826040518082805190602001908083835b602083101515610650578051825260208201915060208101905060208303925061062b565b6001836020036101000a038019825116818451168082178552505050505050905001915050908152602001604051809103902060009054906101000a900460ff169050919050565b80600182602001516040518082805190602001908083835b6020831015156106d557805182526020820191506020810190506020830392506106b0565b6001836020036101000a03801982511681845116808217855250505050505090500191505090815260200160405180910390206000820151816000019080519060200190610724929190610c36565b506020820151816001019080519060200190610741929190610c36565b5060408201518160020155606082015181600301556080820151816004019080519060200190610772929190610c36565b5090505050565b60008181548110151561078857fe5b9060005260206000209060050201600091509050806000018054600181600116156101000203166002900480601f0160208091040260200160405190810160405280929190818152602001828054600181600116156101000203166002900480156108345780601f1061080957610100808354040283529160200191610834565b820191906000526020600020905b81548152906001019060200180831161081757829003601f168201915b505050505090806001018054600181600116156101000203166002900480601f0160208091040260200160405190810160405280929190818152602001828054600181600116156101000203166002900480156108d25780601f106108a7576101008083540402835291602001916108d2565b820191906000526020600020905b8154815290600101906020018083116108b557829003601f168201915b505050505090806002015490806003015490806004018054600181600116156101000203166002900480601f01602080910402602001604051908101604052809291908181526020018280546001816001161561010002031660029004801561097c5780601f106109515761010080835404028352916020019161097c565b820191906000526020600020905b81548152906001019060200180831161095f57829003601f168201915b5050505050905085565b61098e610c06565b6001826040518082805190602001908083835b6020831015156109c657805182526020820191506020810190506020830392506109a1565b6001836020036101000a038019825116818451168082178552505050505050905001915050908152602001604051809103902060a06040519081016040529081600082018054600181600116156101000203166002900480601f016020809104026020016040519081016040528092919081815260200182805460018160011615610100020316600290048015610a9e5780601f10610a7357610100808354040283529160200191610a9e565b820191906000526020600020905b815481529060010190602001808311610a8157829003601f168201915b50505050508152602001600182018054600181600116156101000203166002900480601f016020809104026020016040519081016040528092919081815260200182805460018160011615610100020316600290048015610b405780601f10610b1557610100808354040283529160200191610b40565b820191906000526020600020905b815481529060010190602001808311610b2357829003601f168201915b505050505081526020016002820154815260200160038201548152602001600482018054600181600116156101000203166002900480601f016020809104026020016040519081016040528092919081815260200182805460018160011615610100020316600290048015610bf65780601f10610bcb57610100808354040283529160200191610bf6565b820191906000526020600020905b815481529060010190602001808311610bd957829003601f168201915b5050505050815250509050919050565b60a06040519081016040528060608152602001606081526020016000815260200160008152602001606081525090565b828054600181600116156101000203166002900490600052602060002090601f016020900481019282601f10610c7757805160ff1916838001178555610ca5565b82800160010185558215610ca5579182015b82811115610ca4578251825591602001919060010190610c89565b5b509050610cb29190610cb6565b5090565b610cd891905b80821115610cd4576000816000905550600101610cbc565b5090565b90565b600082601f8301121515610cee57600080fd5b8135610d01610cfc82611293565b611266565b91508082526020830160208301858383011115610d1d57600080fd5b610d2883828461133b565b50505092915050565b600082601f8301121515610d4457600080fd5b8135610d57610d52826112bf565b611266565b91508082526020830160208301858383011115610d7357600080fd5b610d7e83828461133b565b50505092915050565b600060a08284031215610d9957600080fd5b610da360a0611266565b9050600082013567ffffffffffffffff811115610dbf57600080fd5b610dcb84828501610cdb565b600083015250602082013567ffffffffffffffff811115610deb57600080fd5b610df784828501610cdb565b6020830152506040610e0b84828501610e57565b6040830152506060610e1f84828501610e57565b606083015250608082013567ffffffffffffffff811115610e3f57600080fd5b610e4b84828501610cdb565b60808301525092915050565b6000610e638235611331565b905092915050565b600060208284031215610e7d57600080fd5b600082013567ffffffffffffffff811115610e9757600080fd5b610ea384828501610d31565b91505092915050565b600080600080600060a08688031215610ec457600080fd5b600086013567ffffffffffffffff811115610ede57600080fd5b610eea88828901610d31565b955050602086013567ffffffffffffffff811115610f0757600080fd5b610f1388828901610d31565b9450506040610f2488828901610e57565b9350506060610f3588828901610e57565b925050608086013567ffffffffffffffff811115610f5257600080fd5b610f5e88828901610d31565b9150509295509295909350565b600060208284031215610f7d57600080fd5b600082013567ffffffffffffffff811115610f9757600080fd5b610fa384828501610d87565b91505092915050565b600060208284031215610fbe57600080fd5b6000610fcc84828501610e57565b91505092915050565b6000610fe0826112f8565b80845260208401935083602082028501610ff9856112eb565b60005b8481101561103257838303885261101483835161110c565b925061101f8261130e565b9150602088019750600181019050610ffc565b508196508694505050505092915050565b61104c8161131b565b82525050565b600061105d82611303565b80845261107181602086016020860161134a565b61107a8161137d565b602085010191505092915050565b600060a08301600083015184820360008601526110a58282611052565b915050602083015184820360208601526110bf8282611052565b91505060408301516110d46040860182611190565b5060608301516110e76060860182611190565b50608083015184820360808601526110ff8282611052565b9150508091505092915050565b600060a08301600083015184820360008601526111298282611052565b915050602083015184820360208601526111438282611052565b91505060408301516111586040860182611190565b50606083015161116b6060860182611190565b50608083015184820360808601526111838282611052565b9150508091505092915050565b61119981611327565b82525050565b600060208201905081810360008301526111b98184610fd5565b905092915050565b60006020820190506111d66000830184611043565b92915050565b600060a08201905081810360008301526111f68188611052565b9050818103602083015261120a8187611052565b90506112196040830186611190565b6112266060830185611190565b81810360808301526112388184611052565b90509695505050505050565b6000602082019050818103600083015261125e8184611088565b905092915050565b6000604051905081810181811067ffffffffffffffff8211171561128957600080fd5b8060405250919050565b600067ffffffffffffffff8211156112aa57600080fd5b601f19601f8301169050602081019050919050565b600067ffffffffffffffff8211156112d657600080fd5b601f19601f8301169050602081019050919050565b6000602082019050919050565b600081519050919050565b600081519050919050565b6000602082019050919050565b60008115159050919050565b6000819050919050565b6000819050919050565b82818337600083830152505050565b60005b8381101561136857808201518184015260208101905061134d565b83811115611377576000848401525b50505050565b6000601f19601f830116905091905056fea265627a7a7230582025fa6d3b86ea506dbc2547ce9af384723be26dd5516f98c214cd21da7a3b620d6c6578706572696d656e74616cf50037",
  "source": "pragma solidity >=0.4.21 <=0.8.19;\r\npragma experimental ABIEncoderV2;\r\n\r\ncontract FileStorage {\r\n    struct File {\r\n        string name;\r\n        string cid;\r\n        uint256 size;\r\n        uint256 time;\r\n        string type_;\r\n    }\r\n\r\n    File[] public files;\r\n    mapping(string => File) cid2File;\r\n    mapping(string => bool) isCIDExists;\r\n\r\n    function push(\r\n        string memory name,\r\n        string memory cid,\r\n        uint256 size,\r\n        uint256 time,\r\n        string memory type_\r\n    ) public returns (File memory) {\r\n        if (isCIDExists[cid]) {\r\n            revert();\r\n        }\r\n        File memory newFile = File(name, cid, size, time, type_);\r\n        files.push(newFile);\r\n        addDataToMapping(newFile);\r\n        isCIDExists[cid] = true;\r\n        return newFile;\r\n    }\r\n\r\n    function isCIDExisted(string memory cid) public view returns (bool) {\r\n        return isCIDExists[cid];\r\n    }\r\n\r\n    function addDataToMapping(File memory file) public {\r\n        cid2File[file.cid] = file;\r\n    }\r\n\r\n    function getFiles() public view returns (File[] memory) {\r\n        return files;\r\n    }\r\n\r\n    // Read Func\r\n    function getByCid(string memory cid) public view returns (File memory) {\r\n        return cid2File[cid];\r\n    }\r\n}\r\n",
  "sourcePath": "D:/Subiect/Semester2_Year3/Blockchain/Midterm/DApp/src/contracts/FileStorage.sol",
  "compiler": {
    "name": "solc",
    "version": "0.5.0+commit.1d4f565a.Emscripten.clang"
  },
  "schemaVersion": "3.0.2",
  "updatedAt": "2023-04-19T09:32:53.453Z",
  "devdoc": {
    "methods": {}
  },
  "userdoc": {
    "methods": {}
  }
}