{
  "contractName": "FileStorage",
  "abi": [
    {
      "constant": true,
      "inputs": [
        {
          "name": "",
          "type": "uint256"
        }
      ],
      "name": "files",
      "outputs": [
        {
          "name": "name",
          "type": "string"
        },
        {
          "name": "cid",
          "type": "string"
        },
        {
          "name": "size",
          "type": "uint256"
        },
        {
          "name": "time",
          "type": "uint256"
        },
        {
          "name": "type_",
          "type": "string"
        },
        {
          "name": "modify",
          "type": "uint256"
        },
        {
          "name": "uuid",
          "type": "string"
        }
      ],
      "payable": false,
      "stateMutability": "view",
      "type": "function",
      "signature": "0xf4c714b4"
    },
    {
      "constant": false,
      "inputs": [
        {
          "name": "name",
          "type": "string"
        },
        {
          "name": "cid",
          "type": "string"
        },
        {
          "name": "size",
          "type": "uint256"
        },
        {
          "name": "time",
          "type": "uint256"
        },
        {
          "name": "type_",
          "type": "string"
        },
        {
          "name": "uuid",
          "type": "string"
        }
      ],
      "name": "push",
      "outputs": [
        {
          "components": [
            {
              "name": "name",
              "type": "string"
            },
            {
              "name": "cid",
              "type": "string"
            },
            {
              "name": "size",
              "type": "uint256"
            },
            {
              "name": "time",
              "type": "uint256"
            },
            {
              "name": "type_",
              "type": "string"
            },
            {
              "name": "modify",
              "type": "uint256"
            },
            {
              "name": "uuid",
              "type": "string"
            }
          ],
          "name": "",
          "type": "tuple"
        }
      ],
      "payable": false,
      "stateMutability": "nonpayable",
      "type": "function",
      "signature": "0x1951bd97"
    },
    {
      "constant": false,
      "inputs": [
        {
          "name": "cid",
          "type": "string"
        },
        {
          "name": "newName",
          "type": "string"
        },
        {
          "name": "modify",
          "type": "uint256"
        }
      ],
      "name": "renameFile",
      "outputs": [
        {
          "components": [
            {
              "name": "name",
              "type": "string"
            },
            {
              "name": "cid",
              "type": "string"
            },
            {
              "name": "size",
              "type": "uint256"
            },
            {
              "name": "time",
              "type": "uint256"
            },
            {
              "name": "type_",
              "type": "string"
            },
            {
              "name": "modify",
              "type": "uint256"
            },
            {
              "name": "uuid",
              "type": "string"
            }
          ],
          "name": "",
          "type": "tuple"
        }
      ],
      "payable": false,
      "stateMutability": "nonpayable",
      "type": "function",
      "signature": "0x7bc5825f"
    },
    {
      "constant": true,
      "inputs": [
        {
          "name": "cid",
          "type": "string"
        }
      ],
      "name": "isCIDExisted",
      "outputs": [
        {
          "name": "",
          "type": "bool"
        }
      ],
      "payable": false,
      "stateMutability": "view",
      "type": "function",
      "signature": "0xcfe7a397"
    },
    {
      "constant": false,
      "inputs": [
        {
          "components": [
            {
              "name": "name",
              "type": "string"
            },
            {
              "name": "cid",
              "type": "string"
            },
            {
              "name": "size",
              "type": "uint256"
            },
            {
              "name": "time",
              "type": "uint256"
            },
            {
              "name": "type_",
              "type": "string"
            },
            {
              "name": "modify",
              "type": "uint256"
            },
            {
              "name": "uuid",
              "type": "string"
            }
          ],
          "name": "file",
          "type": "tuple"
        }
      ],
      "name": "addDataToMapping",
      "outputs": [],
      "payable": false,
      "stateMutability": "nonpayable",
      "type": "function",
      "signature": "0x6d2124d2"
    },
    {
      "constant": true,
      "inputs": [],
      "name": "getFiles",
      "outputs": [
        {
          "components": [
            {
              "name": "name",
              "type": "string"
            },
            {
              "name": "cid",
              "type": "string"
            },
            {
              "name": "size",
              "type": "uint256"
            },
            {
              "name": "time",
              "type": "uint256"
            },
            {
              "name": "type_",
              "type": "string"
            },
            {
              "name": "modify",
              "type": "uint256"
            },
            {
              "name": "uuid",
              "type": "string"
            }
          ],
          "name": "",
          "type": "tuple[]"
        }
      ],
      "payable": false,
      "stateMutability": "view",
      "type": "function",
      "signature": "0x2da96d73"
    },
    {
      "constant": true,
      "inputs": [
        {
          "name": "cid",
          "type": "string"
        }
      ],
      "name": "getByCid",
      "outputs": [
        {
          "components": [
            {
              "name": "name",
              "type": "string"
            },
            {
              "name": "cid",
              "type": "string"
            },
            {
              "name": "size",
              "type": "uint256"
            },
            {
              "name": "time",
              "type": "uint256"
            },
            {
              "name": "type_",
              "type": "string"
            },
            {
              "name": "modify",
              "type": "uint256"
            },
            {
              "name": "uuid",
              "type": "string"
            }
          ],
          "name": "",
          "type": "tuple"
        }
      ],
      "payable": false,
      "stateMutability": "view",
      "type": "function",
      "signature": "0xf97f6350"
    }
  ],
  "bytecode": "0x608060405234801561001057600080fd5b50611ea0806100206000396000f3fe608060405260043610610083576000357c0100000000000000000000000000000000000000000000000000000000900463ffffffff1680631951bd97146100885780632da96d73146100c55780636d2124d2146100f05780637bc5825f14610119578063cfe7a39714610156578063f4c714b414610193578063f97f6350146101d6575b600080fd5b34801561009457600080fd5b506100af60048036036100aa91908101906118dd565b610213565b6040516100bc9190611d1c565b60405180910390f35b3480156100d157600080fd5b506100da61059f565b6040516100e79190611c54565b60405180910390f35b3480156100fc57600080fd5b50610117600480360361011291908101906119c6565b6108a5565b005b34801561012557600080fd5b50610140600480360361013b919081019061185e565b6109ad565b60405161014d9190611d1c565b60405180910390f35b34801561016257600080fd5b5061017d6004803603610178919081019061181d565b610e04565b60405161018a9190611c76565b60405180910390f35b34801561019f57600080fd5b506101ba60048036036101b59190810190611a07565b610e86565b6040516101cd9796959493929190611c91565b60405180910390f35b3480156101e257600080fd5b506101fd60048036036101f8919081019061181d565b611137565b60405161020a9190611d1c565b60405180910390f35b61021b611463565b610223611463565b60e0604051908101604052808981526020018881526020018781526020018681526020018581526020018681526020018481525090506000819080600181540180825580915050906001820390600052602060002090600702016000909192909190915060008201518160000190805190602001906102a39291906114a1565b5060208201518160010190805190602001906102c09291906114a1565b50604082015181600201556060820151816003015560808201518160040190805190602001906102f19291906114a1565b5060a0820151816005015560c08201518160060190805190602001906103189291906114a1565b50505050806001886040518082805190602001908083835b6020831015156103555780518252602082019150602081019050602083039250610330565b6001836020036101000a038019825116818451168082178552505050505050905001915050908152602001604051809103902060008201518160000190805190602001906103a49291906114a1565b5060208201518160010190805190602001906103c19291906114a1565b50604082015181600201556060820151816003015560808201518160040190805190602001906103f29291906114a1565b5060a0820151816005015560c08201518160060190805190602001906104199291906114a1565b5090505060016002886040518082805190602001908083835b6020831015156104575780518252602082019150602081019050602083039250610432565b6001836020036101000a038019825116818451168082178552505050505050905001915050908152602001604051809103902060006101000a81548160ff0219169083151502179055506001600080549050036003886040518082805190602001908083835b6020831015156104e257805182526020820191506020810190506020830392506104bd565b6001836020036101000a0380198251168184511680821785525050505050509050019150509081526020016040518091039020819055506001600080549050036004846040518082805190602001908083835b60208310151561055a5780518252602082019150602081019050602083039250610535565b6001836020036101000a038019825116818451168082178552505050505050905001915050908152602001604051809103902081905550809150509695505050505050565b60606000805480602002602001604051908101604052809291908181526020016000905b8282101561089c578382906000526020600020906007020160e06040519081016040529081600082018054600181600116156101000203166002900480601f0160208091040260200160405190810160405280929190818152602001828054600181600116156101000203166002900480156106805780601f1061065557610100808354040283529160200191610680565b820191906000526020600020905b81548152906001019060200180831161066357829003601f168201915b50505050508152602001600182018054600181600116156101000203166002900480601f0160208091040260200160405190810160405280929190818152602001828054600181600116156101000203166002900480156107225780601f106106f757610100808354040283529160200191610722565b820191906000526020600020905b81548152906001019060200180831161070557829003601f168201915b505050505081526020016002820154815260200160038201548152602001600482018054600181600116156101000203166002900480601f0160208091040260200160405190810160405280929190818152602001828054600181600116156101000203166002900480156107d85780601f106107ad576101008083540402835291602001916107d8565b820191906000526020600020905b8154815290600101906020018083116107bb57829003601f168201915b5050505050815260200160058201548152602001600682018054600181600116156101000203166002900480601f0160208091040260200160405190810160405280929190818152602001828054600181600116156101000203166002900480156108845780601f1061085957610100808354040283529160200191610884565b820191906000526020600020905b81548152906001019060200180831161086757829003601f168201915b505050505081525050815260200190600101906105c3565b50505050905090565b80600182602001516040518082805190602001908083835b6020831015156108e257805182526020820191506020810190506020830392506108bd565b6001836020036101000a038019825116818451168082178552505050505050905001915050908152602001604051809103902060008201518160000190805190602001906109319291906114a1565b50602082015181600101908051906020019061094e9291906114a1565b506040820151816002015560608201518160030155608082015181600401908051906020019061097f9291906114a1565b5060a0820151816005015560c08201518160060190805190602001906109a69291906114a1565b5090505050565b6109b5611463565b60006004856040518082805190602001908083835b6020831015156109ef57805182526020820191506020810190506020830392506109ca565b6001836020036101000a038019825116818451168082178552505050505050905001915050908152602001604051809103902054905060008082815481101515610a3557fe5b9060005260206000209060070201905084816000019080519060200190610a5d929190611521565b5083816005018190555080600083815481101515610a7757fe5b906000526020600020906007020160008201816000019080546001816001161561010002031660029004610aac9291906115a1565b5060018201816001019080546001816001161561010002031660029004610ad49291906115a1565b50600282015481600201556003820154816003015560048201816004019080546001816001161561010002031660029004610b109291906115a1565b506005820154816005015560068201816006019080546001816001161561010002031660029004610b429291906115a1565b509050508060e06040519081016040529081600082018054600181600116156101000203166002900480601f016020809104026020016040519081016040528092919081815260200182805460018160011615610100020316600290048015610bec5780601f10610bc157610100808354040283529160200191610bec565b820191906000526020600020905b815481529060010190602001808311610bcf57829003601f168201915b50505050508152602001600182018054600181600116156101000203166002900480601f016020809104026020016040519081016040528092919081815260200182805460018160011615610100020316600290048015610c8e5780601f10610c6357610100808354040283529160200191610c8e565b820191906000526020600020905b815481529060010190602001808311610c7157829003601f168201915b505050505081526020016002820154815260200160038201548152602001600482018054600181600116156101000203166002900480601f016020809104026020016040519081016040528092919081815260200182805460018160011615610100020316600290048015610d445780601f10610d1957610100808354040283529160200191610d44565b820191906000526020600020905b815481529060010190602001808311610d2757829003601f168201915b5050505050815260200160058201548152602001600682018054600181600116156101000203166002900480601f016020809104026020016040519081016040528092919081815260200182805460018160011615610100020316600290048015610df05780601f10610dc557610100808354040283529160200191610df0565b820191906000526020600020905b815481529060010190602001808311610dd357829003601f168201915b505050505081525050925050509392505050565b60006002826040518082805190602001908083835b602083101515610e3e5780518252602082019150602081019050602083039250610e19565b6001836020036101000a038019825116818451168082178552505050505050905001915050908152602001604051809103902060009054906101000a900460ff169050919050565b600081815481101515610e9557fe5b9060005260206000209060070201600091509050806000018054600181600116156101000203166002900480601f016020809104026020016040519081016040528092919081815260200182805460018160011615610100020316600290048015610f415780601f10610f1657610100808354040283529160200191610f41565b820191906000526020600020905b815481529060010190602001808311610f2457829003601f168201915b505050505090806001018054600181600116156101000203166002900480601f016020809104026020016040519081016040528092919081815260200182805460018160011615610100020316600290048015610fdf5780601f10610fb457610100808354040283529160200191610fdf565b820191906000526020600020905b815481529060010190602001808311610fc257829003601f168201915b505050505090806002015490806003015490806004018054600181600116156101000203166002900480601f0160208091040260200160405190810160405280929190818152602001828054600181600116156101000203166002900480156110895780601f1061105e57610100808354040283529160200191611089565b820191906000526020600020905b81548152906001019060200180831161106c57829003601f168201915b505050505090806005015490806006018054600181600116156101000203166002900480601f01602080910402602001604051908101604052809291908181526020018280546001816001161561010002031660029004801561112d5780601f106111025761010080835404028352916020019161112d565b820191906000526020600020905b81548152906001019060200180831161111057829003601f168201915b5050505050905087565b61113f611463565b6001826040518082805190602001908083835b6020831015156111775780518252602082019150602081019050602083039250611152565b6001836020036101000a038019825116818451168082178552505050505050905001915050908152602001604051809103902060e06040519081016040529081600082018054600181600116156101000203166002900480601f01602080910402602001604051908101604052809291908181526020018280546001816001161561010002031660029004801561124f5780601f106112245761010080835404028352916020019161124f565b820191906000526020600020905b81548152906001019060200180831161123257829003601f168201915b50505050508152602001600182018054600181600116156101000203166002900480601f0160208091040260200160405190810160405280929190818152602001828054600181600116156101000203166002900480156112f15780601f106112c6576101008083540402835291602001916112f1565b820191906000526020600020905b8154815290600101906020018083116112d457829003601f168201915b505050505081526020016002820154815260200160038201548152602001600482018054600181600116156101000203166002900480601f0160208091040260200160405190810160405280929190818152602001828054600181600116156101000203166002900480156113a75780601f1061137c576101008083540402835291602001916113a7565b820191906000526020600020905b81548152906001019060200180831161138a57829003601f168201915b5050505050815260200160058201548152602001600682018054600181600116156101000203166002900480601f0160208091040260200160405190810160405280929190818152602001828054600181600116156101000203166002900480156114535780601f1061142857610100808354040283529160200191611453565b820191906000526020600020905b81548152906001019060200180831161143657829003601f168201915b5050505050815250509050919050565b60e060405190810160405280606081526020016060815260200160008152602001600081526020016060815260200160008152602001606081525090565b828054600181600116156101000203166002900490600052602060002090601f016020900481019282601f106114e257805160ff1916838001178555611510565b82800160010185558215611510579182015b8281111561150f5782518255916020019190600101906114f4565b5b50905061151d9190611628565b5090565b828054600181600116156101000203166002900490600052602060002090601f016020900481019282601f1061156257805160ff1916838001178555611590565b82800160010185558215611590579182015b8281111561158f578251825591602001919060010190611574565b5b50905061159d9190611628565b5090565b828054600181600116156101000203166002900490600052602060002090601f016020900481019282601f106115da5780548555611617565b8280016001018555821561161757600052602060002091601f016020900482015b828111156116165782548255916001019190600101906115fb565b5b5090506116249190611628565b5090565b61164a91905b8082111561164657600081600090555060010161162e565b5090565b90565b600082601f830112151561166057600080fd5b813561167361166e82611d6b565b611d3e565b9150808252602083016020830185838301111561168f57600080fd5b61169a838284611e13565b50505092915050565b600082601f83011215156116b657600080fd5b81356116c96116c482611d97565b611d3e565b915080825260208301602083018583830111156116e557600080fd5b6116f0838284611e13565b50505092915050565b600060e0828403121561170b57600080fd5b61171560e0611d3e565b9050600082013567ffffffffffffffff81111561173157600080fd5b61173d8482850161164d565b600083015250602082013567ffffffffffffffff81111561175d57600080fd5b6117698482850161164d565b602083015250604061177d84828501611809565b604083015250606061179184828501611809565b606083015250608082013567ffffffffffffffff8111156117b157600080fd5b6117bd8482850161164d565b60808301525060a06117d184828501611809565b60a08301525060c082013567ffffffffffffffff8111156117f157600080fd5b6117fd8482850161164d565b60c08301525092915050565b60006118158235611e09565b905092915050565b60006020828403121561182f57600080fd5b600082013567ffffffffffffffff81111561184957600080fd5b611855848285016116a3565b91505092915050565b60008060006060848603121561187357600080fd5b600084013567ffffffffffffffff81111561188d57600080fd5b611899868287016116a3565b935050602084013567ffffffffffffffff8111156118b657600080fd5b6118c2868287016116a3565b92505060406118d386828701611809565b9150509250925092565b60008060008060008060c087890312156118f657600080fd5b600087013567ffffffffffffffff81111561191057600080fd5b61191c89828a016116a3565b965050602087013567ffffffffffffffff81111561193957600080fd5b61194589828a016116a3565b955050604061195689828a01611809565b945050606061196789828a01611809565b935050608087013567ffffffffffffffff81111561198457600080fd5b61199089828a016116a3565b92505060a087013567ffffffffffffffff8111156119ad57600080fd5b6119b989828a016116a3565b9150509295509295509295565b6000602082840312156119d857600080fd5b600082013567ffffffffffffffff8111156119f257600080fd5b6119fe848285016116f9565b91505092915050565b600060208284031215611a1957600080fd5b6000611a2784828501611809565b91505092915050565b6000611a3b82611dd0565b80845260208401935083602082028501611a5485611dc3565b60005b84811015611a8d578383038852611a6f838351611b94565b9250611a7a82611de6565b9150602088019750600181019050611a57565b508196508694505050505092915050565b611aa781611df3565b82525050565b6000611ab882611ddb565b808452611acc816020860160208601611e22565b611ad581611e55565b602085010191505092915050565b600060e0830160008301518482036000860152611b008282611aad565b91505060208301518482036020860152611b1a8282611aad565b9150506040830151611b2f6040860182611c45565b506060830151611b426060860182611c45565b5060808301518482036080860152611b5a8282611aad565b91505060a0830151611b6f60a0860182611c45565b5060c083015184820360c0860152611b878282611aad565b9150508091505092915050565b600060e0830160008301518482036000860152611bb18282611aad565b91505060208301518482036020860152611bcb8282611aad565b9150506040830151611be06040860182611c45565b506060830151611bf36060860182611c45565b5060808301518482036080860152611c0b8282611aad565b91505060a0830151611c2060a0860182611c45565b5060c083015184820360c0860152611c388282611aad565b9150508091505092915050565b611c4e81611dff565b82525050565b60006020820190508181036000830152611c6e8184611a30565b905092915050565b6000602082019050611c8b6000830184611a9e565b92915050565b600060e0820190508181036000830152611cab818a611aad565b90508181036020830152611cbf8189611aad565b9050611cce6040830188611c45565b611cdb6060830187611c45565b8181036080830152611ced8186611aad565b9050611cfc60a0830185611c45565b81810360c0830152611d0e8184611aad565b905098975050505050505050565b60006020820190508181036000830152611d368184611ae3565b905092915050565b6000604051905081810181811067ffffffffffffffff82111715611d6157600080fd5b8060405250919050565b600067ffffffffffffffff821115611d8257600080fd5b601f19601f8301169050602081019050919050565b600067ffffffffffffffff821115611dae57600080fd5b601f19601f8301169050602081019050919050565b6000602082019050919050565b600081519050919050565b600081519050919050565b6000602082019050919050565b60008115159050919050565b6000819050919050565b6000819050919050565b82818337600083830152505050565b60005b83811015611e40578082015181840152602081019050611e25565b83811115611e4f576000848401525b50505050565b6000601f19601f830116905091905056fea265627a7a7230582071d66f0d4b03dab5fcdd917ce7e607fd8fd85a6f2f014a009477432aa1dee04f6c6578706572696d656e74616cf50037",
  "source": "pragma solidity >=0.4.21 <=0.8.19;\r\npragma experimental ABIEncoderV2;\r\n\r\ncontract FileStorage {\r\n    struct File {\r\n        string name;\r\n        string cid;\r\n        uint256 size;\r\n        uint256 time;\r\n        string type_;\r\n        uint256 modify;\r\n        string uuid;\r\n    }\r\n\r\n    File[] public files;\r\n    mapping(string => File) cid2File;\r\n    mapping(string => bool) isCIDExists;\r\n    mapping(string => uint256) cid2Index;\r\n    mapping(string => uint256) uuid2Index;\r\n\r\n    function push(\r\n        string memory name,\r\n        string memory cid,\r\n        uint256 size,\r\n        uint256 time,\r\n        string memory type_,\r\n        string memory uuid\r\n    ) public returns (File memory) {\r\n        File memory newFile = File(name, cid, size, time, type_, time, uuid);\r\n        files.push(newFile);\r\n        cid2File[cid] = newFile;\r\n        isCIDExists[cid] = true;\r\n        cid2Index[cid] = files.length - 1;\r\n        uuid2Index[uuid] = files.length - 1;\r\n        return newFile;\r\n    }\r\n\r\n    function renameFile(\r\n        string memory cid,\r\n        string memory newName,\r\n        uint256 modify\r\n    ) public returns (File memory) {\r\n        uint256 index = uuid2Index[cid];\r\n        File storage file = files[index];\r\n        file.name = newName;\r\n        file.modify = modify;\r\n        files[index] = file;\r\n        return file;\r\n    }\r\n\r\n    function isCIDExisted(string memory cid) public view returns (bool) {\r\n        return isCIDExists[cid];\r\n    }\r\n\r\n    function addDataToMapping(File memory file) public {\r\n        cid2File[file.cid] = file;\r\n    }\r\n\r\n    function getFiles() public view returns (File[] memory) {\r\n        return files;\r\n    }\r\n\r\n    // Read Func\r\n    function getByCid(string memory cid) public view returns (File memory) {\r\n        return cid2File[cid];\r\n    }\r\n}\r\n",
  "sourcePath": "D:/Subiect/Semester2_Year3/Blockchain/Midterm/DApp/src/contracts/FileStorage.sol",
  "compiler": {
    "name": "solc",
    "version": "0.5.0+commit.1d4f565a.Emscripten.clang"
  },
  "schemaVersion": "3.0.2",
  "updatedAt": "2023-04-20T14:26:45.837Z",
  "devdoc": {
    "methods": {}
  },
  "userdoc": {
    "methods": {}
  }
}