{
  "contractName": "FileStorage",
  "abi": [
    {
      "constant": true,
      "inputs": [
        {
          "name": "",
          "type": "uint256"
        }
      ],
      "name": "files",
      "outputs": [
        {
          "name": "name",
          "type": "string"
        },
        {
          "name": "cid",
          "type": "string"
        },
        {
          "name": "size",
          "type": "uint256"
        },
        {
          "name": "time",
          "type": "uint256"
        },
        {
          "name": "type_",
          "type": "string"
        }
      ],
      "payable": false,
      "stateMutability": "view",
      "type": "function",
      "signature": "0xf4c714b4"
    },
    {
      "constant": false,
      "inputs": [
        {
          "name": "name",
          "type": "string"
        },
        {
          "name": "cid",
          "type": "string"
        },
        {
          "name": "size",
          "type": "uint256"
        },
        {
          "name": "time",
          "type": "uint256"
        },
        {
          "name": "type_",
          "type": "string"
        }
      ],
      "name": "push",
      "outputs": [
        {
          "components": [
            {
              "name": "name",
              "type": "string"
            },
            {
              "name": "cid",
              "type": "string"
            },
            {
              "name": "size",
              "type": "uint256"
            },
            {
              "name": "time",
              "type": "uint256"
            },
            {
              "name": "type_",
              "type": "string"
            }
          ],
          "name": "",
          "type": "tuple"
        }
      ],
      "payable": false,
      "stateMutability": "nonpayable",
      "type": "function",
      "signature": "0x497eecab"
    },
    {
      "constant": false,
      "inputs": [
        {
          "name": "cid",
          "type": "string"
        },
        {
          "name": "newName",
          "type": "string"
        }
      ],
      "name": "renameFile",
      "outputs": [
        {
          "components": [
            {
              "name": "name",
              "type": "string"
            },
            {
              "name": "cid",
              "type": "string"
            },
            {
              "name": "size",
              "type": "uint256"
            },
            {
              "name": "time",
              "type": "uint256"
            },
            {
              "name": "type_",
              "type": "string"
            }
          ],
          "name": "",
          "type": "tuple"
        }
      ],
      "payable": false,
      "stateMutability": "nonpayable",
      "type": "function",
      "signature": "0x13d4a044"
    },
    {
      "constant": true,
      "inputs": [
        {
          "name": "cid",
          "type": "string"
        }
      ],
      "name": "isCIDExisted",
      "outputs": [
        {
          "name": "",
          "type": "bool"
        }
      ],
      "payable": false,
      "stateMutability": "view",
      "type": "function",
      "signature": "0xcfe7a397"
    },
    {
      "constant": false,
      "inputs": [
        {
          "components": [
            {
              "name": "name",
              "type": "string"
            },
            {
              "name": "cid",
              "type": "string"
            },
            {
              "name": "size",
              "type": "uint256"
            },
            {
              "name": "time",
              "type": "uint256"
            },
            {
              "name": "type_",
              "type": "string"
            }
          ],
          "name": "file",
          "type": "tuple"
        }
      ],
      "name": "addDataToMapping",
      "outputs": [],
      "payable": false,
      "stateMutability": "nonpayable",
      "type": "function",
      "signature": "0xdb5ffa71"
    },
    {
      "constant": true,
      "inputs": [],
      "name": "getFiles",
      "outputs": [
        {
          "components": [
            {
              "name": "name",
              "type": "string"
            },
            {
              "name": "cid",
              "type": "string"
            },
            {
              "name": "size",
              "type": "uint256"
            },
            {
              "name": "time",
              "type": "uint256"
            },
            {
              "name": "type_",
              "type": "string"
            }
          ],
          "name": "",
          "type": "tuple[]"
        }
      ],
      "payable": false,
      "stateMutability": "view",
      "type": "function",
      "signature": "0x2da96d73"
    },
    {
      "constant": true,
      "inputs": [
        {
          "name": "cid",
          "type": "string"
        }
      ],
      "name": "getByCid",
      "outputs": [
        {
          "components": [
            {
              "name": "name",
              "type": "string"
            },
            {
              "name": "cid",
              "type": "string"
            },
            {
              "name": "size",
              "type": "uint256"
            },
            {
              "name": "time",
              "type": "uint256"
            },
            {
              "name": "type_",
              "type": "string"
            }
          ],
          "name": "",
          "type": "tuple"
        }
      ],
      "payable": false,
      "stateMutability": "view",
      "type": "function",
      "signature": "0xf97f6350"
    }
  ],
  "bytecode": "0x608060405234801561001057600080fd5b506119b8806100206000396000f3fe608060405260043610610083576000357c0100000000000000000000000000000000000000000000000000000000900463ffffffff16806313d4a044146100885780632da96d73146100c5578063497eecab146100f0578063cfe7a3971461012d578063db5ffa711461016a578063f4c714b414610193578063f97f6350146101d4575b600080fd5b34801561009457600080fd5b506100af60048036036100aa9190810190611430565b610211565b6040516100bc9190611834565b60405180910390f35b3480156100d157600080fd5b506100da610580565b6040516100e7919061178f565b60405180910390f35b3480156100fc57600080fd5b506101176004803603610112919081019061149c565b6107da565b6040516101249190611834565b60405180910390f35b34801561013957600080fd5b50610154600480360361014f91908101906113ef565b610a93565b60405161016191906117b1565b60405180910390f35b34801561017657600080fd5b50610191600480360361018c919081019061155b565b610b15565b005b34801561019f57600080fd5b506101ba60048036036101b5919081019061159c565b610bf6565b6040516101cb9594939291906117cc565b60405180910390f35b3480156101e057600080fd5b506101fb60048036036101f691908101906113ef565b610e03565b6040516102089190611834565b60405180910390f35b610219611083565b60006003846040518082805190602001908083835b602083101515610253578051825260208201915060208101905060208303925061022e565b6001836020036101000a03801982511681845116808217855250505050505090500191505090815260200160405180910390205490506000808281548110151561029957fe5b90600052602060002090600502019050838160000190805190602001906102c19291906110b3565b50806000838154811015156102d257fe5b906000526020600020906005020160008201816000019080546001816001161561010002031660029004610307929190611133565b506001820181600101908054600181600116156101000203166002900461032f929190611133565b5060028201548160020155600382015481600301556004820181600401908054600181600116156101000203166002900461036b929190611133565b509050508060a06040519081016040529081600082018054600181600116156101000203166002900480601f0160208091040260200160405190810160405280929190818152602001828054600181600116156101000203166002900480156104155780601f106103ea57610100808354040283529160200191610415565b820191906000526020600020905b8154815290600101906020018083116103f857829003601f168201915b50505050508152602001600182018054600181600116156101000203166002900480601f0160208091040260200160405190810160405280929190818152602001828054600181600116156101000203166002900480156104b75780601f1061048c576101008083540402835291602001916104b7565b820191906000526020600020905b81548152906001019060200180831161049a57829003601f168201915b505050505081526020016002820154815260200160038201548152602001600482018054600181600116156101000203166002900480601f01602080910402602001604051908101604052809291908181526020018280546001816001161561010002031660029004801561056d5780601f106105425761010080835404028352916020019161056d565b820191906000526020600020905b81548152906001019060200180831161055057829003601f168201915b5050505050815250509250505092915050565b60606000805480602002602001604051908101604052809291908181526020016000905b828210156107d1578382906000526020600020906005020160a06040519081016040529081600082018054600181600116156101000203166002900480601f0160208091040260200160405190810160405280929190818152602001828054600181600116156101000203166002900480156106615780601f1061063657610100808354040283529160200191610661565b820191906000526020600020905b81548152906001019060200180831161064457829003601f168201915b50505050508152602001600182018054600181600116156101000203166002900480601f0160208091040260200160405190810160405280929190818152602001828054600181600116156101000203166002900480156107035780601f106106d857610100808354040283529160200191610703565b820191906000526020600020905b8154815290600101906020018083116106e657829003601f168201915b505050505081526020016002820154815260200160038201548152602001600482018054600181600116156101000203166002900480601f0160208091040260200160405190810160405280929190818152602001828054600181600116156101000203166002900480156107b95780601f1061078e576101008083540402835291602001916107b9565b820191906000526020600020905b81548152906001019060200180831161079c57829003601f168201915b505050505081525050815260200190600101906105a4565b50505050905090565b6107e2611083565b6107ea611083565b60a06040519081016040528088815260200187815260200186815260200185815260200184815250905060008190806001815401808255809150509060018203906000526020600020906005020160009091929091909150600082015181600001908051906020019061085e9291906111ba565b50602082015181600101908051906020019061087b9291906111ba565b50604082015181600201556060820151816003015560808201518160040190805190602001906108ac9291906111ba565b50505050806001876040518082805190602001908083835b6020831015156108e957805182526020820191506020810190506020830392506108c4565b6001836020036101000a038019825116818451168082178552505050505050905001915050908152602001604051809103902060008201518160000190805190602001906109389291906111ba565b5060208201518160010190805190602001906109559291906111ba565b50604082015181600201556060820151816003015560808201518160040190805190602001906109869291906111ba565b5090505060016002876040518082805190602001908083835b6020831015156109c4578051825260208201915060208101905060208303925061099f565b6001836020036101000a038019825116818451168082178552505050505050905001915050908152602001604051809103902060006101000a81548160ff0219169083151502179055506001600080549050036003876040518082805190602001908083835b602083101515610a4f5780518252602082019150602081019050602083039250610a2a565b6001836020036101000a0380198251168184511680821785525050505050509050019150509081526020016040518091039020819055508091505095945050505050565b60006002826040518082805190602001908083835b602083101515610acd5780518252602082019150602081019050602083039250610aa8565b6001836020036101000a038019825116818451168082178552505050505050905001915050908152602001604051809103902060009054906101000a900460ff169050919050565b80600182602001516040518082805190602001908083835b602083101515610b525780518252602082019150602081019050602083039250610b2d565b6001836020036101000a03801982511681845116808217855250505050505090500191505090815260200160405180910390206000820151816000019080519060200190610ba19291906111ba565b506020820151816001019080519060200190610bbe9291906111ba565b5060408201518160020155606082015181600301556080820151816004019080519060200190610bef9291906111ba565b5090505050565b600081815481101515610c0557fe5b9060005260206000209060050201600091509050806000018054600181600116156101000203166002900480601f016020809104026020016040519081016040528092919081815260200182805460018160011615610100020316600290048015610cb15780601f10610c8657610100808354040283529160200191610cb1565b820191906000526020600020905b815481529060010190602001808311610c9457829003601f168201915b505050505090806001018054600181600116156101000203166002900480601f016020809104026020016040519081016040528092919081815260200182805460018160011615610100020316600290048015610d4f5780601f10610d2457610100808354040283529160200191610d4f565b820191906000526020600020905b815481529060010190602001808311610d3257829003601f168201915b505050505090806002015490806003015490806004018054600181600116156101000203166002900480601f016020809104026020016040519081016040528092919081815260200182805460018160011615610100020316600290048015610df95780601f10610dce57610100808354040283529160200191610df9565b820191906000526020600020905b815481529060010190602001808311610ddc57829003601f168201915b5050505050905085565b610e0b611083565b6001826040518082805190602001908083835b602083101515610e435780518252602082019150602081019050602083039250610e1e565b6001836020036101000a038019825116818451168082178552505050505050905001915050908152602001604051809103902060a06040519081016040529081600082018054600181600116156101000203166002900480601f016020809104026020016040519081016040528092919081815260200182805460018160011615610100020316600290048015610f1b5780601f10610ef057610100808354040283529160200191610f1b565b820191906000526020600020905b815481529060010190602001808311610efe57829003601f168201915b50505050508152602001600182018054600181600116156101000203166002900480601f016020809104026020016040519081016040528092919081815260200182805460018160011615610100020316600290048015610fbd5780601f10610f9257610100808354040283529160200191610fbd565b820191906000526020600020905b815481529060010190602001808311610fa057829003601f168201915b505050505081526020016002820154815260200160038201548152602001600482018054600181600116156101000203166002900480601f0160208091040260200160405190810160405280929190818152602001828054600181600116156101000203166002900480156110735780601f1061104857610100808354040283529160200191611073565b820191906000526020600020905b81548152906001019060200180831161105657829003601f168201915b5050505050815250509050919050565b60a06040519081016040528060608152602001606081526020016000815260200160008152602001606081525090565b828054600181600116156101000203166002900490600052602060002090601f016020900481019282601f106110f457805160ff1916838001178555611122565b82800160010185558215611122579182015b82811115611121578251825591602001919060010190611106565b5b50905061112f919061123a565b5090565b828054600181600116156101000203166002900490600052602060002090601f016020900481019282601f1061116c57805485556111a9565b828001600101855582156111a957600052602060002091601f016020900482015b828111156111a857825482559160010191906001019061118d565b5b5090506111b6919061123a565b5090565b828054600181600116156101000203166002900490600052602060002090601f016020900481019282601f106111fb57805160ff1916838001178555611229565b82800160010185558215611229579182015b8281111561122857825182559160200191906001019061120d565b5b509050611236919061123a565b5090565b61125c91905b80821115611258576000816000905550600101611240565b5090565b90565b600082601f830112151561127257600080fd5b813561128561128082611883565b611856565b915080825260208301602083018583830111156112a157600080fd5b6112ac83828461192b565b50505092915050565b600082601f83011215156112c857600080fd5b81356112db6112d6826118af565b611856565b915080825260208301602083018583830111156112f757600080fd5b61130283828461192b565b50505092915050565b600060a0828403121561131d57600080fd5b61132760a0611856565b9050600082013567ffffffffffffffff81111561134357600080fd5b61134f8482850161125f565b600083015250602082013567ffffffffffffffff81111561136f57600080fd5b61137b8482850161125f565b602083015250604061138f848285016113db565b60408301525060606113a3848285016113db565b606083015250608082013567ffffffffffffffff8111156113c357600080fd5b6113cf8482850161125f565b60808301525092915050565b60006113e78235611921565b905092915050565b60006020828403121561140157600080fd5b600082013567ffffffffffffffff81111561141b57600080fd5b611427848285016112b5565b91505092915050565b6000806040838503121561144357600080fd5b600083013567ffffffffffffffff81111561145d57600080fd5b611469858286016112b5565b925050602083013567ffffffffffffffff81111561148657600080fd5b611492858286016112b5565b9150509250929050565b600080600080600060a086880312156114b457600080fd5b600086013567ffffffffffffffff8111156114ce57600080fd5b6114da888289016112b5565b955050602086013567ffffffffffffffff8111156114f757600080fd5b611503888289016112b5565b9450506040611514888289016113db565b9350506060611525888289016113db565b925050608086013567ffffffffffffffff81111561154257600080fd5b61154e888289016112b5565b9150509295509295909350565b60006020828403121561156d57600080fd5b600082013567ffffffffffffffff81111561158757600080fd5b6115938482850161130b565b91505092915050565b6000602082840312156115ae57600080fd5b60006115bc848285016113db565b91505092915050565b60006115d0826118e8565b808452602084019350836020820285016115e9856118db565b60005b848110156116225783830388526116048383516116fc565b925061160f826118fe565b91506020880197506001810190506115ec565b508196508694505050505092915050565b61163c8161190b565b82525050565b600061164d826118f3565b80845261166181602086016020860161193a565b61166a8161196d565b602085010191505092915050565b600060a08301600083015184820360008601526116958282611642565b915050602083015184820360208601526116af8282611642565b91505060408301516116c46040860182611780565b5060608301516116d76060860182611780565b50608083015184820360808601526116ef8282611642565b9150508091505092915050565b600060a08301600083015184820360008601526117198282611642565b915050602083015184820360208601526117338282611642565b91505060408301516117486040860182611780565b50606083015161175b6060860182611780565b50608083015184820360808601526117738282611642565b9150508091505092915050565b61178981611917565b82525050565b600060208201905081810360008301526117a981846115c5565b905092915050565b60006020820190506117c66000830184611633565b92915050565b600060a08201905081810360008301526117e68188611642565b905081810360208301526117fa8187611642565b90506118096040830186611780565b6118166060830185611780565b81810360808301526118288184611642565b90509695505050505050565b6000602082019050818103600083015261184e8184611678565b905092915050565b6000604051905081810181811067ffffffffffffffff8211171561187957600080fd5b8060405250919050565b600067ffffffffffffffff82111561189a57600080fd5b601f19601f8301169050602081019050919050565b600067ffffffffffffffff8211156118c657600080fd5b601f19601f8301169050602081019050919050565b6000602082019050919050565b600081519050919050565b600081519050919050565b6000602082019050919050565b60008115159050919050565b6000819050919050565b6000819050919050565b82818337600083830152505050565b60005b8381101561195857808201518184015260208101905061193d565b83811115611967576000848401525b50505050565b6000601f19601f830116905091905056fea265627a7a723058206c3f86a2bbe47eb0929cfc609b585369c3daad9f8c3cc0efba522e8e2c1f3ce36c6578706572696d656e74616cf50037",
  "source": "pragma solidity >=0.4.21 <=0.8.19;\r\npragma experimental ABIEncoderV2;\r\n\r\ncontract FileStorage {\r\n    struct File {\r\n        string name;\r\n        string cid;\r\n        uint256 size;\r\n        uint256 time;\r\n        string type_;\r\n    }\r\n\r\n    File[] public files;\r\n    mapping(string => File) cid2File;\r\n    mapping(string => bool) isCIDExists;\r\n    mapping(string => uint256) cid2Index;\r\n\r\n    function push(\r\n        string memory name,\r\n        string memory cid,\r\n        uint256 size,\r\n        uint256 time,\r\n        string memory type_\r\n    ) public returns (File memory) {\r\n        File memory newFile = File(name, cid, size, time, type_);\r\n        files.push(newFile);\r\n        cid2File[cid] = newFile;\r\n        isCIDExists[cid] = true;\r\n        cid2Index[cid] = files.length - 1;\r\n        // addDataToMapping(newFile);\r\n        return newFile;\r\n    }\r\n\r\n    function renameFile(\r\n        string memory cid,\r\n        string memory newName\r\n    ) public returns (File memory) {\r\n        uint256 index = cid2Index[cid];\r\n        File storage file = files[index];\r\n        file.name = newName;\r\n        files[index] = file;\r\n        return file;\r\n    }\r\n\r\n    function isCIDExisted(string memory cid) public view returns (bool) {\r\n        return isCIDExists[cid];\r\n    }\r\n\r\n    function addDataToMapping(File memory file) public {\r\n        cid2File[file.cid] = file;\r\n    }\r\n\r\n    function getFiles() public view returns (File[] memory) {\r\n        return files;\r\n    }\r\n\r\n    // Read Func\r\n    function getByCid(string memory cid) public view returns (File memory) {\r\n        return cid2File[cid];\r\n    }\r\n}\r\n",
  "sourcePath": "D:/Subiect/Semester2_Year3/Blockchain/Midterm/DApp/src/contracts/FileStorage.sol",
  "compiler": {
    "name": "solc",
    "version": "0.5.0+commit.1d4f565a.Emscripten.clang"
  },
  "schemaVersion": "3.0.2",
  "updatedAt": "2023-04-20T12:10:32.860Z",
  "devdoc": {
    "methods": {}
  },
  "userdoc": {
    "methods": {}
  }
}